{
  "contractName": "CEXTickets",
  "abi": [
    {
      "inputs": [
        {
          "internalType": "string",
          "name": "name",
          "type": "string"
        },
        {
          "internalType": "string",
          "name": "symbol",
          "type": "string"
        }
      ],
      "stateMutability": "nonpayable",
      "type": "constructor"
    },
    {
      "anonymous": false,
      "inputs": [
        {
          "indexed": true,
          "internalType": "address",
          "name": "owner",
          "type": "address"
        },
        {
          "indexed": true,
          "internalType": "address",
          "name": "approved",
          "type": "address"
        },
        {
          "indexed": true,
          "internalType": "uint256",
          "name": "tokenId",
          "type": "uint256"
        }
      ],
      "name": "Approval",
      "type": "event"
    },
    {
      "anonymous": false,
      "inputs": [
        {
          "indexed": true,
          "internalType": "address",
          "name": "owner",
          "type": "address"
        },
        {
          "indexed": true,
          "internalType": "address",
          "name": "operator",
          "type": "address"
        },
        {
          "indexed": false,
          "internalType": "bool",
          "name": "approved",
          "type": "bool"
        }
      ],
      "name": "ApprovalForAll",
      "type": "event"
    },
    {
      "anonymous": false,
      "inputs": [
        {
          "indexed": true,
          "internalType": "address",
          "name": "previousOwner",
          "type": "address"
        },
        {
          "indexed": true,
          "internalType": "address",
          "name": "newOwner",
          "type": "address"
        }
      ],
      "name": "OwnershipTransferred",
      "type": "event"
    },
    {
      "anonymous": false,
      "inputs": [
        {
          "indexed": true,
          "internalType": "address",
          "name": "from",
          "type": "address"
        },
        {
          "indexed": true,
          "internalType": "address",
          "name": "to",
          "type": "address"
        },
        {
          "indexed": true,
          "internalType": "uint256",
          "name": "tokenId",
          "type": "uint256"
        }
      ],
      "name": "Transfer",
      "type": "event"
    },
    {
      "inputs": [
        {
          "internalType": "address",
          "name": "to",
          "type": "address"
        },
        {
          "internalType": "uint256",
          "name": "tokenId",
          "type": "uint256"
        }
      ],
      "name": "approve",
      "outputs": [],
      "stateMutability": "nonpayable",
      "type": "function"
    },
    {
      "inputs": [
        {
          "internalType": "address",
          "name": "owner",
          "type": "address"
        }
      ],
      "name": "balanceOf",
      "outputs": [
        {
          "internalType": "uint256",
          "name": "",
          "type": "uint256"
        }
      ],
      "stateMutability": "view",
      "type": "function"
    },
    {
      "inputs": [
        {
          "internalType": "uint256",
          "name": "tokenId",
          "type": "uint256"
        }
      ],
      "name": "getApproved",
      "outputs": [
        {
          "internalType": "address",
          "name": "",
          "type": "address"
        }
      ],
      "stateMutability": "view",
      "type": "function"
    },
    {
      "inputs": [
        {
          "internalType": "address",
          "name": "owner",
          "type": "address"
        },
        {
          "internalType": "address",
          "name": "operator",
          "type": "address"
        }
      ],
      "name": "isApprovedForAll",
      "outputs": [
        {
          "internalType": "bool",
          "name": "",
          "type": "bool"
        }
      ],
      "stateMutability": "view",
      "type": "function"
    },
    {
      "inputs": [],
      "name": "name",
      "outputs": [
        {
          "internalType": "string",
          "name": "",
          "type": "string"
        }
      ],
      "stateMutability": "view",
      "type": "function"
    },
    {
      "inputs": [],
      "name": "owner",
      "outputs": [
        {
          "internalType": "address",
          "name": "",
          "type": "address"
        }
      ],
      "stateMutability": "view",
      "type": "function"
    },
    {
      "inputs": [
        {
          "internalType": "uint256",
          "name": "tokenId",
          "type": "uint256"
        }
      ],
      "name": "ownerOf",
      "outputs": [
        {
          "internalType": "address",
          "name": "",
          "type": "address"
        }
      ],
      "stateMutability": "view",
      "type": "function"
    },
    {
      "inputs": [
        {
          "internalType": "address",
          "name": "from",
          "type": "address"
        },
        {
          "internalType": "address",
          "name": "to",
          "type": "address"
        },
        {
          "internalType": "uint256",
          "name": "tokenId",
          "type": "uint256"
        }
      ],
      "name": "safeTransferFrom",
      "outputs": [],
      "stateMutability": "nonpayable",
      "type": "function"
    },
    {
      "inputs": [
        {
          "internalType": "address",
          "name": "from",
          "type": "address"
        },
        {
          "internalType": "address",
          "name": "to",
          "type": "address"
        },
        {
          "internalType": "uint256",
          "name": "tokenId",
          "type": "uint256"
        },
        {
          "internalType": "bytes",
          "name": "_data",
          "type": "bytes"
        }
      ],
      "name": "safeTransferFrom",
      "outputs": [],
      "stateMutability": "nonpayable",
      "type": "function"
    },
    {
      "inputs": [
        {
          "internalType": "address",
          "name": "operator",
          "type": "address"
        },
        {
          "internalType": "bool",
          "name": "approved",
          "type": "bool"
        }
      ],
      "name": "setApprovalForAll",
      "outputs": [],
      "stateMutability": "nonpayable",
      "type": "function"
    },
    {
      "inputs": [
        {
          "internalType": "bytes4",
          "name": "interfaceId",
          "type": "bytes4"
        }
      ],
      "name": "supportsInterface",
      "outputs": [
        {
          "internalType": "bool",
          "name": "",
          "type": "bool"
        }
      ],
      "stateMutability": "view",
      "type": "function"
    },
    {
      "inputs": [],
      "name": "symbol",
      "outputs": [
        {
          "internalType": "string",
          "name": "",
          "type": "string"
        }
      ],
      "stateMutability": "view",
      "type": "function"
    },
    {
      "inputs": [
        {
          "internalType": "uint256",
          "name": "tokenId",
          "type": "uint256"
        }
      ],
      "name": "tokenURI",
      "outputs": [
        {
          "internalType": "string",
          "name": "",
          "type": "string"
        }
      ],
      "stateMutability": "view",
      "type": "function"
    },
    {
      "inputs": [
        {
          "internalType": "address",
          "name": "from",
          "type": "address"
        },
        {
          "internalType": "address",
          "name": "to",
          "type": "address"
        },
        {
          "internalType": "uint256",
          "name": "tokenId",
          "type": "uint256"
        }
      ],
      "name": "transferFrom",
      "outputs": [],
      "stateMutability": "nonpayable",
      "type": "function"
    },
    {
      "inputs": [
        {
          "internalType": "address",
          "name": "newOwner",
          "type": "address"
        }
      ],
      "name": "transferOwnership",
      "outputs": [],
      "stateMutability": "nonpayable",
      "type": "function"
    },
    {
      "inputs": [],
      "name": "buy",
      "outputs": [],
      "stateMutability": "payable",
      "type": "function"
    }
  ],
  "bytecode": "0x60806040526064600a556040518060800160405280670a688906bd8b000067ffffffffffffffff168152602001670d2f13f7789f000067ffffffffffffffff168152602001670de0b6b3a764000067ffffffffffffffff168152602001671158e460913d000067ffffffffffffffff16815250600b90600462000084929190620001b7565b503480156200009257600080fd5b5060405162003043380380620030438339818101604052810190620000b8919062000337565b81818160009080519060200190620000d292919062000215565b508060019080519060200190620000eb92919062000215565b505050600062000100620001af60201b60201c565b905080600660006101000a81548173ffffffffffffffffffffffffffffffffffffffff021916908373ffffffffffffffffffffffffffffffffffffffff1602179055508073ffffffffffffffffffffffffffffffffffffffff16600073ffffffffffffffffffffffffffffffffffffffff167f8be0079c531659141344cd1fd0a4f28419497f9722a3daafe3b4186f6b6457e060405160405180910390a35060016007819055505050620004db565b600033905090565b82805482825590600052602060002090810192821562000202579160200282015b8281111562000201578251829067ffffffffffffffff16905591602001919060010190620001d8565b5b509050620002119190620002a6565b5090565b828054620002239062000447565b90600052602060002090601f01602090048101928262000247576000855562000293565b82601f106200026257805160ff191683800117855562000293565b8280016001018555821562000293579182015b828111156200029257825182559160200191906001019062000275565b5b509050620002a29190620002a6565b5090565b5b80821115620002c1576000816000905550600101620002a7565b5090565b6000620002dc620002d684620003de565b620003aa565b905082815260208101848484011115620002f557600080fd5b6200030284828562000411565b509392505050565b600082601f8301126200031c57600080fd5b81516200032e848260208601620002c5565b91505092915050565b600080604083850312156200034b57600080fd5b600083015167ffffffffffffffff8111156200036657600080fd5b62000374858286016200030a565b925050602083015167ffffffffffffffff8111156200039257600080fd5b620003a0858286016200030a565b9150509250929050565b6000604051905081810181811067ffffffffffffffff82111715620003d457620003d3620004ac565b5b8060405250919050565b600067ffffffffffffffff821115620003fc57620003fb620004ac565b5b601f19601f8301169050602081019050919050565b60005b838110156200043157808201518184015260208101905062000414565b8381111562000441576000848401525b50505050565b600060028204905060018216806200046057607f821691505b602082108114156200047757620004766200047d565b5b50919050565b7f4e487b7100000000000000000000000000000000000000000000000000000000600052602260045260246000fd5b7f4e487b7100000000000000000000000000000000000000000000000000000000600052604160045260246000fd5b612b5880620004eb6000396000f3fe6080604052600436106100f35760003560e01c80638da5cb5b1161008a578063b88d4fde11610059578063b88d4fde1461031b578063c87b56dd14610344578063e985e9c514610381578063f2fde38b146103be576100f3565b80638da5cb5b1461029257806395d89b41146102bd578063a22cb465146102e8578063a6f2ae3a14610311576100f3565b806323b872dd116100c657806323b872dd146101c657806342842e0e146101ef5780636352211e1461021857806370a0823114610255576100f3565b806301ffc9a7146100f857806306fdde0314610135578063081812fc14610160578063095ea7b31461019d575b600080fd5b34801561010457600080fd5b5061011f600480360381019061011a9190611c82565b6103e7565b60405161012c91906124a0565b60405180910390f35b34801561014157600080fd5b5061014a6104c9565b60405161015791906124bb565b60405180910390f35b34801561016c57600080fd5b5061018760048036038101906101829190611cd4565b61055b565b6040516101949190612439565b60405180910390f35b3480156101a957600080fd5b506101c460048036038101906101bf9190611c46565b6105e0565b005b3480156101d257600080fd5b506101ed60048036038101906101e89190611b40565b6106f8565b005b3480156101fb57600080fd5b5061021660048036038101906102119190611b40565b610758565b005b34801561022457600080fd5b5061023f600480360381019061023a9190611cd4565b610778565b60405161024c9190612439565b60405180910390f35b34801561026157600080fd5b5061027c60048036038101906102779190611adb565b61082a565b604051610289919061271d565b60405180910390f35b34801561029e57600080fd5b506102a76108e2565b6040516102b49190612439565b60405180910390f35b3480156102c957600080fd5b506102d261090c565b6040516102df91906124bb565b60405180910390f35b3480156102f457600080fd5b5061030f600480360381019061030a9190611c0a565b61099e565b005b6103196109b4565b005b34801561032757600080fd5b50610342600480360381019061033d9190611b8f565b610b18565b005b34801561035057600080fd5b5061036b60048036038101906103669190611cd4565b610b7a565b60405161037891906124bb565b60405180910390f35b34801561038d57600080fd5b506103a860048036038101906103a39190611b04565b610c21565b6040516103b591906124a0565b60405180910390f35b3480156103ca57600080fd5b506103e560048036038101906103e09190611adb565b610cb5565b005b60007f80ac58cd000000000000000000000000000000000000000000000000000000007bffffffffffffffffffffffffffffffffffffffffffffffffffffffff1916827bffffffffffffffffffffffffffffffffffffffffffffffffffffffff191614806104b257507f5b5e139f000000000000000000000000000000000000000000000000000000007bffffffffffffffffffffffffffffffffffffffffffffffffffffffff1916827bffffffffffffffffffffffffffffffffffffffffffffffffffffffff1916145b806104c257506104c182610de5565b5b9050919050565b6060600080546104d89061294d565b80601f01602080910402602001604051908101604052809291908181526020018280546105049061294d565b80156105515780601f1061052657610100808354040283529160200191610551565b820191906000526020600020905b81548152906001019060200180831161053457829003601f168201915b5050505050905090565b600061056682610e4f565b6105a5576040517f08c379a000000000000000000000000000000000000000000000000000000000815260040161059c9061263d565b60405180910390fd5b6004600083815260200190815260200160002060009054906101000a900473ffffffffffffffffffffffffffffffffffffffff169050919050565b60006105eb82610778565b90508073ffffffffffffffffffffffffffffffffffffffff168373ffffffffffffffffffffffffffffffffffffffff16141561065c576040517f08c379a0000000000000000000000000000000000000000000000000000000008152600401610653906126bd565b60405180910390fd5b8073ffffffffffffffffffffffffffffffffffffffff1661067b610ebb565b73ffffffffffffffffffffffffffffffffffffffff1614806106aa57506106a9816106a4610ebb565b610c21565b5b6106e9576040517f08c379a00000000000000000000000000000000000000000000000000000000081526004016106e0906125bd565b60405180910390fd5b6106f38383610ec3565b505050565b610709610703610ebb565b82610f7c565b610748576040517f08c379a000000000000000000000000000000000000000000000000000000000815260040161073f906126dd565b60405180910390fd5b61075383838361105a565b505050565b61077383838360405180602001604052806000815250610b18565b505050565b6000806002600084815260200190815260200160002060009054906101000a900473ffffffffffffffffffffffffffffffffffffffff169050600073ffffffffffffffffffffffffffffffffffffffff168173ffffffffffffffffffffffffffffffffffffffff161415610821576040517f08c379a0000000000000000000000000000000000000000000000000000000008152600401610818906125fd565b60405180910390fd5b80915050919050565b60008073ffffffffffffffffffffffffffffffffffffffff168273ffffffffffffffffffffffffffffffffffffffff16141561089b576040517f08c379a0000000000000000000000000000000000000000000000000000000008152600401610892906125dd565b60405180910390fd5b600360008373ffffffffffffffffffffffffffffffffffffffff1673ffffffffffffffffffffffffffffffffffffffff168152602001908152602001600020549050919050565b6000600660009054906101000a900473ffffffffffffffffffffffffffffffffffffffff16905090565b60606001805461091b9061294d565b80601f01602080910402602001604051908101604052809291908181526020018280546109479061294d565b80156109945780601f1061096957610100808354040283529160200191610994565b820191906000526020600020905b81548152906001019060200180831161097757829003601f168201915b5050505050905090565b6109b06109a9610ebb565b83836112b6565b5050565b600260075414156109fa576040517f08c379a00000000000000000000000000000000000000000000000000000000081526004016109f1906126fd565b60405180910390fd5b6002600781905550600b6019610a106008611423565b610a1a9190612832565b81548110610a51577f4e487b7100000000000000000000000000000000000000000000000000000000600052603260045260246000fd5b90600052602060002001543414610a9d576040517f08c379a0000000000000000000000000000000000000000000000000000000008152600401610a94906124dd565b60405180910390fd5b600a54610aaa6008611423565b10610aea576040517f08c379a0000000000000000000000000000000000000000000000000000000008152600401610ae19061265d565b60405180910390fd5b610b04610af5610ebb565b610aff6008611423565b611431565b610b0e60086115ff565b6001600781905550565b610b29610b23610ebb565b83610f7c565b610b68576040517f08c379a0000000000000000000000000000000000000000000000000000000008152600401610b5f906126dd565b60405180910390fd5b610b7484848484611615565b50505050565b6060610b8582610e4f565b610bc4576040517f08c379a0000000000000000000000000000000000000000000000000000000008152600401610bbb9061269d565b60405180910390fd5b6000610bce611671565b90506000815111610bee5760405180602001604052806000815250610c19565b80610bf8846116ae565b604051602001610c09929190612415565b6040516020818303038152906040525b915050919050565b6000600560008473ffffffffffffffffffffffffffffffffffffffff1673ffffffffffffffffffffffffffffffffffffffff16815260200190815260200160002060008373ffffffffffffffffffffffffffffffffffffffff1673ffffffffffffffffffffffffffffffffffffffff16815260200190815260200160002060009054906101000a900460ff16905092915050565b600073ffffffffffffffffffffffffffffffffffffffff168173ffffffffffffffffffffffffffffffffffffffff161415610d25576040517f08c379a0000000000000000000000000000000000000000000000000000000008152600401610d1c9061251d565b60405180910390fd5b8073ffffffffffffffffffffffffffffffffffffffff16600660009054906101000a900473ffffffffffffffffffffffffffffffffffffffff1673ffffffffffffffffffffffffffffffffffffffff167f8be0079c531659141344cd1fd0a4f28419497f9722a3daafe3b4186f6b6457e060405160405180910390a380600660006101000a81548173ffffffffffffffffffffffffffffffffffffffff021916908373ffffffffffffffffffffffffffffffffffffffff16021790555050565b60007f01ffc9a7000000000000000000000000000000000000000000000000000000007bffffffffffffffffffffffffffffffffffffffffffffffffffffffff1916827bffffffffffffffffffffffffffffffffffffffffffffffffffffffff1916149050919050565b60008073ffffffffffffffffffffffffffffffffffffffff166002600084815260200190815260200160002060009054906101000a900473ffffffffffffffffffffffffffffffffffffffff1673ffffffffffffffffffffffffffffffffffffffff1614159050919050565b600033905090565b816004600083815260200190815260200160002060006101000a81548173ffffffffffffffffffffffffffffffffffffffff021916908373ffffffffffffffffffffffffffffffffffffffff160217905550808273ffffffffffffffffffffffffffffffffffffffff16610f3683610778565b73ffffffffffffffffffffffffffffffffffffffff167f8c5be1e5ebec7d5bd14f71427d1e84f3dd0314c0f7b2291e5b200ac8c7c3b92560405160405180910390a45050565b6000610f8782610e4f565b610fc6576040517f08c379a0000000000000000000000000000000000000000000000000000000008152600401610fbd9061259d565b60405180910390fd5b6000610fd183610778565b90508073ffffffffffffffffffffffffffffffffffffffff168473ffffffffffffffffffffffffffffffffffffffff16148061104057508373ffffffffffffffffffffffffffffffffffffffff166110288461055b565b73ffffffffffffffffffffffffffffffffffffffff16145b8061105157506110508185610c21565b5b91505092915050565b8273ffffffffffffffffffffffffffffffffffffffff1661107a82610778565b73ffffffffffffffffffffffffffffffffffffffff16146110d0576040517f08c379a00000000000000000000000000000000000000000000000000000000081526004016110c79061267d565b60405180910390fd5b600073ffffffffffffffffffffffffffffffffffffffff168273ffffffffffffffffffffffffffffffffffffffff161415611140576040517f08c379a00000000000000000000000000000000000000000000000000000000081526004016111379061255d565b60405180910390fd5b61114b83838361185b565b611156600082610ec3565b6001600360008573ffffffffffffffffffffffffffffffffffffffff1673ffffffffffffffffffffffffffffffffffffffff16815260200190815260200160002060008282546111a69190612863565b925050819055506001600360008473ffffffffffffffffffffffffffffffffffffffff1673ffffffffffffffffffffffffffffffffffffffff16815260200190815260200160002060008282546111fd91906127dc565b92505081905550816002600083815260200190815260200160002060006101000a81548173ffffffffffffffffffffffffffffffffffffffff021916908373ffffffffffffffffffffffffffffffffffffffff160217905550808273ffffffffffffffffffffffffffffffffffffffff168473ffffffffffffffffffffffffffffffffffffffff167fddf252ad1be2c89b69c2b068fc378daa952ba7f163c4a11628f55a4df523b3ef60405160405180910390a4505050565b8173ffffffffffffffffffffffffffffffffffffffff168373ffffffffffffffffffffffffffffffffffffffff161415611325576040517f08c379a000000000000000000000000000000000000000000000000000000000815260040161131c9061257d565b60405180910390fd5b80600560008573ffffffffffffffffffffffffffffffffffffffff1673ffffffffffffffffffffffffffffffffffffffff16815260200190815260200160002060008473ffffffffffffffffffffffffffffffffffffffff1673ffffffffffffffffffffffffffffffffffffffff16815260200190815260200160002060006101000a81548160ff0219169083151502179055508173ffffffffffffffffffffffffffffffffffffffff168373ffffffffffffffffffffffffffffffffffffffff167f17307eab39ab6107e8899845ad3d59bd9653f200f220920489ca2b5937696c318360405161141691906124a0565b60405180910390a3505050565b600081600001549050919050565b600073ffffffffffffffffffffffffffffffffffffffff168273ffffffffffffffffffffffffffffffffffffffff1614156114a1576040517f08c379a00000000000000000000000000000000000000000000000000000000081526004016114989061261d565b60405180910390fd5b6114aa81610e4f565b156114ea576040517f08c379a00000000000000000000000000000000000000000000000000000000081526004016114e19061253d565b60405180910390fd5b6114f66000838361185b565b6001600360008473ffffffffffffffffffffffffffffffffffffffff1673ffffffffffffffffffffffffffffffffffffffff168152602001908152602001600020600082825461154691906127dc565b92505081905550816002600083815260200190815260200160002060006101000a81548173ffffffffffffffffffffffffffffffffffffffff021916908373ffffffffffffffffffffffffffffffffffffffff160217905550808273ffffffffffffffffffffffffffffffffffffffff16600073ffffffffffffffffffffffffffffffffffffffff167fddf252ad1be2c89b69c2b068fc378daa952ba7f163c4a11628f55a4df523b3ef60405160405180910390a45050565b6001816000016000828254019250508190555050565b61162084848461105a565b61162c84848484611860565b61166b576040517f08c379a0000000000000000000000000000000000000000000000000000000008152600401611662906124fd565b60405180910390fd5b50505050565b60606040518060400160405280600e81526020017f6365782e636f6d2f696d6167652f000000000000000000000000000000000000815250905090565b606060008214156116f6576040518060400160405280600181526020017f30000000000000000000000000000000000000000000000000000000000000008152509050611856565b600082905060005b600082146117285780806117119061297f565b915050600a826117219190612832565b91506116fe565b60008167ffffffffffffffff81111561176a577f4e487b7100000000000000000000000000000000000000000000000000000000600052604160045260246000fd5b6040519080825280601f01601f19166020018201604052801561179c5781602001600182028036833780820191505090505b5090505b6000851461184f576001826117b59190612863565b9150600a856117c491906129c8565b60306117d091906127dc565b60f81b81838151811061180c577f4e487b7100000000000000000000000000000000000000000000000000000000600052603260045260246000fd5b60200101907effffffffffffffffffffffffffffffffffffffffffffffffffffffffffffff1916908160001a905350600a856118489190612832565b94506117a0565b8093505050505b919050565b505050565b60006118818473ffffffffffffffffffffffffffffffffffffffff166119f7565b156119ea578373ffffffffffffffffffffffffffffffffffffffff1663150b7a026118aa610ebb565b8786866040518563ffffffff1660e01b81526004016118cc9493929190612454565b602060405180830381600087803b1580156118e657600080fd5b505af192505050801561191757506040513d601f19601f820116820180604052508101906119149190611cab565b60015b61199a573d8060008114611947576040519150601f19603f3d011682016040523d82523d6000602084013e61194c565b606091505b50600081511415611992576040517f08c379a0000000000000000000000000000000000000000000000000000000008152600401611989906124fd565b60405180910390fd5b805181602001fd5b63150b7a0260e01b7bffffffffffffffffffffffffffffffffffffffffffffffffffffffff1916817bffffffffffffffffffffffffffffffffffffffffffffffffffffffff1916149150506119ef565b600190505b949350505050565b600080823b905060008111915050919050565b6000611a1d611a1884612769565b612738565b905082815260208101848484011115611a3557600080fd5b611a4084828561290b565b509392505050565b600081359050611a5781612ac6565b92915050565b600081359050611a6c81612add565b92915050565b600081359050611a8181612af4565b92915050565b600081519050611a9681612af4565b92915050565b600082601f830112611aad57600080fd5b8135611abd848260208601611a0a565b91505092915050565b600081359050611ad581612b0b565b92915050565b600060208284031215611aed57600080fd5b6000611afb84828501611a48565b91505092915050565b60008060408385031215611b1757600080fd5b6000611b2585828601611a48565b9250506020611b3685828601611a48565b9150509250929050565b600080600060608486031215611b5557600080fd5b6000611b6386828701611a48565b9350506020611b7486828701611a48565b9250506040611b8586828701611ac6565b9150509250925092565b60008060008060808587031215611ba557600080fd5b6000611bb387828801611a48565b9450506020611bc487828801611a48565b9350506040611bd587828801611ac6565b925050606085013567ffffffffffffffff811115611bf257600080fd5b611bfe87828801611a9c565b91505092959194509250565b60008060408385031215611c1d57600080fd5b6000611c2b85828601611a48565b9250506020611c3c85828601611a5d565b9150509250929050565b60008060408385031215611c5957600080fd5b6000611c6785828601611a48565b9250506020611c7885828601611ac6565b9150509250929050565b600060208284031215611c9457600080fd5b6000611ca284828501611a72565b91505092915050565b600060208284031215611cbd57600080fd5b6000611ccb84828501611a87565b91505092915050565b600060208284031215611ce657600080fd5b6000611cf484828501611ac6565b91505092915050565b611d0681612897565b82525050565b611d15816128a9565b82525050565b6000611d2682612799565b611d3081856127af565b9350611d4081856020860161291a565b611d4981612ab5565b840191505092915050565b6000611d5f826127a4565b611d6981856127c0565b9350611d7981856020860161291a565b611d8281612ab5565b840191505092915050565b6000611d98826127a4565b611da281856127d1565b9350611db281856020860161291a565b80840191505092915050565b6000611dcb601c836127c0565b91507f496e636f727265637420616d6f756e74206f66204554482073656e74000000006000830152602082019050919050565b6000611e0b6032836127c0565b91507f4552433732313a207472616e7366657220746f206e6f6e20455243373231526560008301527f63656976657220696d706c656d656e74657200000000000000000000000000006020830152604082019050919050565b6000611e716026836127c0565b91507f4f776e61626c653a206e6577206f776e657220697320746865207a65726f206160008301527f64647265737300000000000000000000000000000000000000000000000000006020830152604082019050919050565b6000611ed7601c836127c0565b91507f4552433732313a20746f6b656e20616c7265616479206d696e746564000000006000830152602082019050919050565b6000611f176024836127c0565b91507f4552433732313a207472616e7366657220746f20746865207a65726f2061646460008301527f72657373000000000000000000000000000000000000000000000000000000006020830152604082019050919050565b6000611f7d6019836127c0565b91507f4552433732313a20617070726f766520746f2063616c6c6572000000000000006000830152602082019050919050565b6000611fbd602c836127c0565b91507f4552433732313a206f70657261746f7220717565727920666f72206e6f6e657860008301527f697374656e7420746f6b656e00000000000000000000000000000000000000006020830152604082019050919050565b60006120236038836127c0565b91507f4552433732313a20617070726f76652063616c6c6572206973206e6f74206f7760008301527f6e6572206e6f7220617070726f76656420666f7220616c6c00000000000000006020830152604082019050919050565b6000612089602a836127c0565b91507f4552433732313a2062616c616e636520717565727920666f7220746865207a6560008301527f726f2061646472657373000000000000000000000000000000000000000000006020830152604082019050919050565b60006120ef6029836127c0565b91507f4552433732313a206f776e657220717565727920666f72206e6f6e657869737460008301527f656e7420746f6b656e00000000000000000000000000000000000000000000006020830152604082019050919050565b60006121556020836127c0565b91507f4552433732313a206d696e7420746f20746865207a65726f20616464726573736000830152602082019050919050565b6000612195602c836127c0565b91507f4552433732313a20617070726f76656420717565727920666f72206e6f6e657860008301527f697374656e7420746f6b656e00000000000000000000000000000000000000006020830152604082019050919050565b60006121fb6014836127c0565b91507f5469636b6574732061726520736f6c64206f75740000000000000000000000006000830152602082019050919050565b600061223b6029836127c0565b91507f4552433732313a207472616e73666572206f6620746f6b656e2074686174206960008301527f73206e6f74206f776e00000000000000000000000000000000000000000000006020830152604082019050919050565b60006122a1602f836127c0565b91507f4552433732314d657461646174613a2055524920717565727920666f72206e6f60008301527f6e6578697374656e7420746f6b656e00000000000000000000000000000000006020830152604082019050919050565b60006123076021836127c0565b91507f4552433732313a20617070726f76616c20746f2063757272656e74206f776e6560008301527f72000000000000000000000000000000000000000000000000000000000000006020830152604082019050919050565b600061236d6031836127c0565b91507f4552433732313a207472616e736665722063616c6c6572206973206e6f74206f60008301527f776e6572206e6f7220617070726f7665640000000000000000000000000000006020830152604082019050919050565b60006123d3601f836127c0565b91507f5265656e7472616e637947756172643a207265656e7472616e742063616c6c006000830152602082019050919050565b61240f81612901565b82525050565b60006124218285611d8d565b915061242d8284611d8d565b91508190509392505050565b600060208201905061244e6000830184611cfd565b92915050565b60006080820190506124696000830187611cfd565b6124766020830186611cfd565b6124836040830185612406565b81810360608301526124958184611d1b565b905095945050505050565b60006020820190506124b56000830184611d0c565b92915050565b600060208201905081810360008301526124d58184611d54565b905092915050565b600060208201905081810360008301526124f681611dbe565b9050919050565b6000602082019050818103600083015261251681611dfe565b9050919050565b6000602082019050818103600083015261253681611e64565b9050919050565b6000602082019050818103600083015261255681611eca565b9050919050565b6000602082019050818103600083015261257681611f0a565b9050919050565b6000602082019050818103600083015261259681611f70565b9050919050565b600060208201905081810360008301526125b681611fb0565b9050919050565b600060208201905081810360008301526125d681612016565b9050919050565b600060208201905081810360008301526125f68161207c565b9050919050565b60006020820190508181036000830152612616816120e2565b9050919050565b6000602082019050818103600083015261263681612148565b9050919050565b6000602082019050818103600083015261265681612188565b9050919050565b60006020820190508181036000830152612676816121ee565b9050919050565b600060208201905081810360008301526126968161222e565b9050919050565b600060208201905081810360008301526126b681612294565b9050919050565b600060208201905081810360008301526126d6816122fa565b9050919050565b600060208201905081810360008301526126f681612360565b9050919050565b60006020820190508181036000830152612716816123c6565b9050919050565b60006020820190506127326000830184612406565b92915050565b6000604051905081810181811067ffffffffffffffff8211171561275f5761275e612a86565b5b8060405250919050565b600067ffffffffffffffff82111561278457612783612a86565b5b601f19601f8301169050602081019050919050565b600081519050919050565b600081519050919050565b600082825260208201905092915050565b600082825260208201905092915050565b600081905092915050565b60006127e782612901565b91506127f283612901565b9250827fffffffffffffffffffffffffffffffffffffffffffffffffffffffffffffffff03821115612827576128266129f9565b5b828201905092915050565b600061283d82612901565b915061284883612901565b92508261285857612857612a28565b5b828204905092915050565b600061286e82612901565b915061287983612901565b92508282101561288c5761288b6129f9565b5b828203905092915050565b60006128a2826128e1565b9050919050565b60008115159050919050565b60007fffffffff0000000000000000000000000000000000000000000000000000000082169050919050565b600073ffffffffffffffffffffffffffffffffffffffff82169050919050565b6000819050919050565b82818337600083830152505050565b60005b8381101561293857808201518184015260208101905061291d565b83811115612947576000848401525b50505050565b6000600282049050600182168061296557607f821691505b6020821081141561297957612978612a57565b5b50919050565b600061298a82612901565b91507fffffffffffffffffffffffffffffffffffffffffffffffffffffffffffffffff8214156129bd576129bc6129f9565b5b600182019050919050565b60006129d382612901565b91506129de83612901565b9250826129ee576129ed612a28565b5b828206905092915050565b7f4e487b7100000000000000000000000000000000000000000000000000000000600052601160045260246000fd5b7f4e487b7100000000000000000000000000000000000000000000000000000000600052601260045260246000fd5b7f4e487b7100000000000000000000000000000000000000000000000000000000600052602260045260246000fd5b7f4e487b7100000000000000000000000000000000000000000000000000000000600052604160045260246000fd5b6000601f19601f8301169050919050565b612acf81612897565b8114612ada57600080fd5b50565b612ae6816128a9565b8114612af157600080fd5b50565b612afd816128b5565b8114612b0857600080fd5b50565b612b1481612901565b8114612b1f57600080fd5b5056fea2646970667358221220275a2fb5ed84a695e2a24518dbede41ab286aabb543a53a921579c6fd22fa12f64736f6c63430008000033",
  "immutableReferences": {},
  "source": "// SPDX-License-Identifier: UNNLICENSED\npragma solidity 0.8.0;\n\nimport \"./ERC721.sol\";\nimport \"./Ownable.sol\";\nimport \"./Counters.sol\";\nimport \"./ReentrancyGuard.sol\";\ncontract CEXTickets is ERC721, Ownable, ReentrancyGuard {\n    using Counters for Counters.Counter;\n    Counters.Counter ID;\n    Counters.Counter quarter;\n    uint256 mintLimit = 100;\n    uint256[] quarters = [750000000000000000, 950000000000000000, 1000000000000000000, 1250000000000000000];\n    \n    \n    constructor(string memory name, string memory symbol) ERC721(name, symbol) {}\n    \n    function buy() public payable nonReentrant {\n        require(msg.value == quarters[Counters.current(ID) / 25], \"Incorrect amount of ETH sent\");\n        require(Counters.current(ID) < mintLimit, \"Tickets are sold out\");\n        \n        _mint(_msgSender(), Counters.current(ID));\n        Counters.increment(ID);\n    }\n    \n}",
  "sourcePath": "/Users/adrianlawson/Documents/savethedate/contracts/NFT.sol",
  "compiler": {
    "name": "solc",
    "version": "0.8.0+commit.c7dfd78e.Emscripten.clang"
  },
  "schemaVersion": "3.2.5",
  "updatedAt": "2021-11-04T02:20:09.194Z",
  "devdoc": {
    "kind": "dev",
    "methods": {
      "approve(address,uint256)": {
        "details": "See {IERC721-approve}."
      },
      "balanceOf(address)": {
        "details": "See {IERC721-balanceOf}."
      },
      "getApproved(uint256)": {
        "details": "See {IERC721-getApproved}."
      },
      "isApprovedForAll(address,address)": {
        "details": "See {IERC721-isApprovedForAll}."
      },
      "name()": {
        "details": "See {IERC721Metadata-name}."
      },
      "owner()": {
        "details": "Returns the address of the current owner."
      },
      "ownerOf(uint256)": {
        "details": "See {IERC721-ownerOf}."
      },
      "safeTransferFrom(address,address,uint256)": {
        "details": "See {IERC721-safeTransferFrom}."
      },
      "safeTransferFrom(address,address,uint256,bytes)": {
        "details": "See {IERC721-safeTransferFrom}."
      },
      "setApprovalForAll(address,bool)": {
        "details": "See {IERC721-setApprovalForAll}."
      },
      "supportsInterface(bytes4)": {
        "details": "See {IERC165-supportsInterface}."
      },
      "symbol()": {
        "details": "See {IERC721Metadata-symbol}."
      },
      "tokenURI(uint256)": {
        "details": "See {IERC721Metadata-tokenURI}."
      },
      "transferFrom(address,address,uint256)": {
        "details": "See {IERC721-transferFrom}."
      },
      "transferOwnership(address)": {
        "details": "Transfers ownership of the contract to a new account (`newOwner`). Can only be called by the current owner."
      }
    },
    "version": 1
  },
  "userdoc": {
    "kind": "user",
    "methods": {},
    "version": 1
  }
}