{
  "contractName": "LuuLawson",
  "abi": [
    {
      "inputs": [
        {
          "internalType": "string[]",
          "name": "links",
          "type": "string[]"
        },
        {
          "internalType": "uint256",
          "name": "_price",
          "type": "uint256"
        }
      ],
      "stateMutability": "nonpayable",
      "type": "constructor"
    },
    {
      "anonymous": false,
      "inputs": [
        {
          "indexed": true,
          "internalType": "address",
          "name": "owner",
          "type": "address"
        },
        {
          "indexed": true,
          "internalType": "address",
          "name": "approved",
          "type": "address"
        },
        {
          "indexed": true,
          "internalType": "uint256",
          "name": "tokenId",
          "type": "uint256"
        }
      ],
      "name": "Approval",
      "type": "event"
    },
    {
      "anonymous": false,
      "inputs": [
        {
          "indexed": true,
          "internalType": "address",
          "name": "owner",
          "type": "address"
        },
        {
          "indexed": true,
          "internalType": "address",
          "name": "operator",
          "type": "address"
        },
        {
          "indexed": false,
          "internalType": "bool",
          "name": "approved",
          "type": "bool"
        }
      ],
      "name": "ApprovalForAll",
      "type": "event"
    },
    {
      "anonymous": false,
      "inputs": [
        {
          "indexed": true,
          "internalType": "address",
          "name": "previousOwner",
          "type": "address"
        },
        {
          "indexed": true,
          "internalType": "address",
          "name": "newOwner",
          "type": "address"
        }
      ],
      "name": "OwnershipTransferred",
      "type": "event"
    },
    {
      "anonymous": false,
      "inputs": [
        {
          "indexed": true,
          "internalType": "address",
          "name": "from",
          "type": "address"
        },
        {
          "indexed": true,
          "internalType": "address",
          "name": "to",
          "type": "address"
        },
        {
          "indexed": true,
          "internalType": "uint256",
          "name": "tokenId",
          "type": "uint256"
        }
      ],
      "name": "Transfer",
      "type": "event"
    },
    {
      "inputs": [
        {
          "internalType": "address",
          "name": "to",
          "type": "address"
        },
        {
          "internalType": "uint256",
          "name": "tokenId",
          "type": "uint256"
        }
      ],
      "name": "approve",
      "outputs": [],
      "stateMutability": "nonpayable",
      "type": "function"
    },
    {
      "inputs": [
        {
          "internalType": "address",
          "name": "owner",
          "type": "address"
        }
      ],
      "name": "balanceOf",
      "outputs": [
        {
          "internalType": "uint256",
          "name": "",
          "type": "uint256"
        }
      ],
      "stateMutability": "view",
      "type": "function"
    },
    {
      "inputs": [
        {
          "internalType": "uint256",
          "name": "tokenId",
          "type": "uint256"
        }
      ],
      "name": "getApproved",
      "outputs": [
        {
          "internalType": "address",
          "name": "",
          "type": "address"
        }
      ],
      "stateMutability": "view",
      "type": "function"
    },
    {
      "inputs": [
        {
          "internalType": "address",
          "name": "owner",
          "type": "address"
        },
        {
          "internalType": "address",
          "name": "operator",
          "type": "address"
        }
      ],
      "name": "isApprovedForAll",
      "outputs": [
        {
          "internalType": "bool",
          "name": "",
          "type": "bool"
        }
      ],
      "stateMutability": "view",
      "type": "function"
    },
    {
      "inputs": [],
      "name": "name",
      "outputs": [
        {
          "internalType": "string",
          "name": "",
          "type": "string"
        }
      ],
      "stateMutability": "view",
      "type": "function"
    },
    {
      "inputs": [],
      "name": "owner",
      "outputs": [
        {
          "internalType": "address",
          "name": "",
          "type": "address"
        }
      ],
      "stateMutability": "view",
      "type": "function"
    },
    {
      "inputs": [
        {
          "internalType": "uint256",
          "name": "tokenId",
          "type": "uint256"
        }
      ],
      "name": "ownerOf",
      "outputs": [
        {
          "internalType": "address",
          "name": "",
          "type": "address"
        }
      ],
      "stateMutability": "view",
      "type": "function"
    },
    {
      "inputs": [],
      "name": "price",
      "outputs": [
        {
          "internalType": "uint256",
          "name": "",
          "type": "uint256"
        }
      ],
      "stateMutability": "view",
      "type": "function"
    },
    {
      "inputs": [
        {
          "internalType": "address",
          "name": "from",
          "type": "address"
        },
        {
          "internalType": "address",
          "name": "to",
          "type": "address"
        },
        {
          "internalType": "uint256",
          "name": "tokenId",
          "type": "uint256"
        }
      ],
      "name": "safeTransferFrom",
      "outputs": [],
      "stateMutability": "nonpayable",
      "type": "function"
    },
    {
      "inputs": [
        {
          "internalType": "address",
          "name": "from",
          "type": "address"
        },
        {
          "internalType": "address",
          "name": "to",
          "type": "address"
        },
        {
          "internalType": "uint256",
          "name": "tokenId",
          "type": "uint256"
        },
        {
          "internalType": "bytes",
          "name": "_data",
          "type": "bytes"
        }
      ],
      "name": "safeTransferFrom",
      "outputs": [],
      "stateMutability": "nonpayable",
      "type": "function"
    },
    {
      "inputs": [
        {
          "internalType": "address",
          "name": "operator",
          "type": "address"
        },
        {
          "internalType": "bool",
          "name": "approved",
          "type": "bool"
        }
      ],
      "name": "setApprovalForAll",
      "outputs": [],
      "stateMutability": "nonpayable",
      "type": "function"
    },
    {
      "inputs": [
        {
          "internalType": "bytes4",
          "name": "interfaceId",
          "type": "bytes4"
        }
      ],
      "name": "supportsInterface",
      "outputs": [
        {
          "internalType": "bool",
          "name": "",
          "type": "bool"
        }
      ],
      "stateMutability": "view",
      "type": "function"
    },
    {
      "inputs": [],
      "name": "symbol",
      "outputs": [
        {
          "internalType": "string",
          "name": "",
          "type": "string"
        }
      ],
      "stateMutability": "view",
      "type": "function"
    },
    {
      "inputs": [
        {
          "internalType": "uint256",
          "name": "tokenId",
          "type": "uint256"
        }
      ],
      "name": "tokenURI",
      "outputs": [
        {
          "internalType": "string",
          "name": "",
          "type": "string"
        }
      ],
      "stateMutability": "view",
      "type": "function"
    },
    {
      "inputs": [
        {
          "internalType": "address",
          "name": "from",
          "type": "address"
        },
        {
          "internalType": "address",
          "name": "to",
          "type": "address"
        },
        {
          "internalType": "uint256",
          "name": "tokenId",
          "type": "uint256"
        }
      ],
      "name": "transferFrom",
      "outputs": [],
      "stateMutability": "nonpayable",
      "type": "function"
    },
    {
      "inputs": [
        {
          "internalType": "address",
          "name": "newOwner",
          "type": "address"
        }
      ],
      "name": "transferOwnership",
      "outputs": [],
      "stateMutability": "nonpayable",
      "type": "function"
    },
    {
      "inputs": [],
      "name": "buy",
      "outputs": [],
      "stateMutability": "payable",
      "type": "function"
    }
  ],
  "bytecode": "0x60806040523480156200001157600080fd5b506040516200323038038062003230833981810160405281019062000037919062000458565b6040518060400160405280600c81526020017f4c7575202b204c6177736f6e00000000000000000000000000000000000000008152506040518060400160405280600681526020017f4c55554c415700000000000000000000000000000000000000000000000000008152508160009080519060200190620000bb929190620001b8565b508060019080519060200190620000d4929190620001b8565b5050506000620000e9620001b060201b60201c565b905080600660006101000a81548173ffffffffffffffffffffffffffffffffffffffff021916908373ffffffffffffffffffffffffffffffffffffffff1602179055508073ffffffffffffffffffffffffffffffffffffffff16600073ffffffffffffffffffffffffffffffffffffffff167f8be0079c531659141344cd1fd0a4f28419497f9722a3daafe3b4186f6b6457e060405160405180910390a350806008819055508160099080519060200190620001a792919062000249565b50505062000636565b600033905090565b828054620001c69062000588565b90600052602060002090601f016020900481019282620001ea576000855562000236565b82601f106200020557805160ff191683800117855562000236565b8280016001018555821562000236579182015b828111156200023557825182559160200191906001019062000218565b5b509050620002459190620002b0565b5090565b8280548282559060005260206000209081019282156200029d579160200282015b828111156200029c5782518290805190602001906200028b929190620001b8565b50916020019190600101906200026a565b5b509050620002ac9190620002cf565b5090565b5b80821115620002cb576000816000905550600101620002b1565b5090565b5b80821115620002f35760008181620002e99190620002f7565b50600101620002d0565b5090565b508054620003059062000588565b6000825580601f106200031957506200033a565b601f016020900490600052602060002090810190620003399190620002b0565b5b50565b6000620003546200034e84620004e6565b620004b2565b9050808382526020820190508260005b858110156200039857815185016200037d888262000414565b84526020840193506020830192505060018101905062000364565b5050509392505050565b6000620003b9620003b38462000515565b620004b2565b905082815260208101848484011115620003d257600080fd5b620003df84828562000552565b509392505050565b600082601f830112620003f957600080fd5b81516200040b8482602086016200033d565b91505092915050565b600082601f8301126200042657600080fd5b815162000438848260208601620003a2565b91505092915050565b60008151905062000452816200061c565b92915050565b600080604083850312156200046c57600080fd5b600083015167ffffffffffffffff8111156200048757600080fd5b6200049585828601620003e7565b9250506020620004a88582860162000441565b9150509250929050565b6000604051905081810181811067ffffffffffffffff82111715620004dc57620004db620005ed565b5b8060405250919050565b600067ffffffffffffffff821115620005045762000503620005ed565b5b602082029050602081019050919050565b600067ffffffffffffffff821115620005335762000532620005ed565b5b601f19601f8301169050602081019050919050565b6000819050919050565b60005b838110156200057257808201518184015260208101905062000555565b8381111562000582576000848401525b50505050565b60006002820490506001821680620005a157607f821691505b60208210811415620005b857620005b7620005be565b5b50919050565b7f4e487b7100000000000000000000000000000000000000000000000000000000600052602260045260246000fd5b7f4e487b7100000000000000000000000000000000000000000000000000000000600052604160045260246000fd5b620006278162000548565b81146200063357600080fd5b50565b612bea80620006466000396000f3fe6080604052600436106100fe5760003560e01c80638da5cb5b11610095578063a6f2ae3a11610064578063a6f2ae3a14610347578063b88d4fde14610351578063c87b56dd1461037a578063e985e9c5146103b7578063f2fde38b146103f4576100fe565b80638da5cb5b1461029d57806395d89b41146102c8578063a035b1fe146102f3578063a22cb4651461031e576100fe565b806323b872dd116100d157806323b872dd146101d157806342842e0e146101fa5780636352211e1461022357806370a0823114610260576100fe565b806301ffc9a71461010357806306fdde0314610140578063081812fc1461016b578063095ea7b3146101a8575b600080fd5b34801561010f57600080fd5b5061012a60048036038101906101259190611cda565b61041d565b6040516101379190612527565b60405180910390f35b34801561014c57600080fd5b506101556104ff565b6040516101629190612542565b60405180910390f35b34801561017757600080fd5b50610192600480360381019061018d9190611d2c565b610591565b60405161019f91906124c0565b60405180910390f35b3480156101b457600080fd5b506101cf60048036038101906101ca9190611c9e565b610616565b005b3480156101dd57600080fd5b506101f860048036038101906101f39190611b98565b61072e565b005b34801561020657600080fd5b50610221600480360381019061021c9190611b98565b61078e565b005b34801561022f57600080fd5b5061024a60048036038101906102459190611d2c565b6107ae565b60405161025791906124c0565b60405180910390f35b34801561026c57600080fd5b5061028760048036038101906102829190611b33565b610860565b60405161029491906127a4565b60405180910390f35b3480156102a957600080fd5b506102b2610918565b6040516102bf91906124c0565b60405180910390f35b3480156102d457600080fd5b506102dd610942565b6040516102ea9190612542565b60405180910390f35b3480156102ff57600080fd5b506103086109d4565b60405161031591906127a4565b60405180910390f35b34801561032a57600080fd5b5061034560048036038101906103409190611c62565b6109da565b005b61034f6109f0565b005b34801561035d57600080fd5b5061037860048036038101906103739190611be7565b610b70565b005b34801561038657600080fd5b506103a1600480360381019061039c9190611d2c565b610bd2565b6040516103ae9190612542565b60405180910390f35b3480156103c357600080fd5b506103de60048036038101906103d99190611b5c565b610c79565b6040516103eb9190612527565b60405180910390f35b34801561040057600080fd5b5061041b60048036038101906104169190611b33565b610d0d565b005b60007f80ac58cd000000000000000000000000000000000000000000000000000000007bffffffffffffffffffffffffffffffffffffffffffffffffffffffff1916827bffffffffffffffffffffffffffffffffffffffffffffffffffffffff191614806104e857507f5b5e139f000000000000000000000000000000000000000000000000000000007bffffffffffffffffffffffffffffffffffffffffffffffffffffffff1916827bffffffffffffffffffffffffffffffffffffffffffffffffffffffff1916145b806104f857506104f782610e3d565b5b9050919050565b60606000805461050e906129df565b80601f016020809104026020016040519081016040528092919081815260200182805461053a906129df565b80156105875780601f1061055c57610100808354040283529160200191610587565b820191906000526020600020905b81548152906001019060200180831161056a57829003601f168201915b5050505050905090565b600061059c82610ea7565b6105db576040517f08c379a00000000000000000000000000000000000000000000000000000000081526004016105d2906126e4565b60405180910390fd5b6004600083815260200190815260200160002060009054906101000a900473ffffffffffffffffffffffffffffffffffffffff169050919050565b6000610621826107ae565b90508073ffffffffffffffffffffffffffffffffffffffff168373ffffffffffffffffffffffffffffffffffffffff161415610692576040517f08c379a000000000000000000000000000000000000000000000000000000000815260040161068990612744565b60405180910390fd5b8073ffffffffffffffffffffffffffffffffffffffff166106b1610f13565b73ffffffffffffffffffffffffffffffffffffffff1614806106e057506106df816106da610f13565b610c79565b5b61071f576040517f08c379a000000000000000000000000000000000000000000000000000000000815260040161071690612664565b60405180910390fd5b6107298383610f1b565b505050565b61073f610739610f13565b82610fd4565b61077e576040517f08c379a000000000000000000000000000000000000000000000000000000000815260040161077590612764565b60405180910390fd5b6107898383836110b2565b505050565b6107a983838360405180602001604052806000815250610b70565b505050565b6000806002600084815260200190815260200160002060009054906101000a900473ffffffffffffffffffffffffffffffffffffffff169050600073ffffffffffffffffffffffffffffffffffffffff168173ffffffffffffffffffffffffffffffffffffffff161415610857576040517f08c379a000000000000000000000000000000000000000000000000000000000815260040161084e906126a4565b60405180910390fd5b80915050919050565b60008073ffffffffffffffffffffffffffffffffffffffff168273ffffffffffffffffffffffffffffffffffffffff1614156108d1576040517f08c379a00000000000000000000000000000000000000000000000000000000081526004016108c890612684565b60405180910390fd5b600360008373ffffffffffffffffffffffffffffffffffffffff1673ffffffffffffffffffffffffffffffffffffffff168152602001908152602001600020549050919050565b6000600660009054906101000a900473ffffffffffffffffffffffffffffffffffffffff16905090565b606060018054610951906129df565b80601f016020809104026020016040519081016040528092919081815260200182805461097d906129df565b80156109ca5780601f1061099f576101008083540402835291602001916109ca565b820191906000526020600020905b8154815290600101906020018083116109ad57829003601f168201915b5050505050905090565b60085481565b6109ec6109e5610f13565b838361130e565b5050565b6001600980549050610a0291906128f5565b610a0c600761147b565b10610a4c576040517f08c379a0000000000000000000000000000000000000000000000000000000008152600401610a4390612784565b60405180910390fd5b6008543414610a90576040517f08c379a0000000000000000000000000000000000000000000000000000000008152600401610a8790612564565b60405180910390fd5b6000610a9a610918565b73ffffffffffffffffffffffffffffffffffffffff1634604051610abd906124ab565b60006040518083038185875af1925050503d8060008114610afa576040519150601f19603f3d011682016040523d82523d6000602084013e610aff565b606091505b5050905080610b43576040517f08c379a0000000000000000000000000000000000000000000000000000000008152600401610b3a906125c4565b60405180910390fd5b6000610b4f600761147b565b9050610b5b6007611489565b610b6c610b66610f13565b8261149f565b5050565b610b81610b7b610f13565b83610fd4565b610bc0576040517f08c379a0000000000000000000000000000000000000000000000000000000008152600401610bb790612764565b60405180910390fd5b610bcc8484848461166d565b50505050565b6060610bdd82610ea7565b610c1c576040517f08c379a0000000000000000000000000000000000000000000000000000000008152600401610c1390612724565b60405180910390fd5b6000610c266116c9565b90506000815111610c465760405180602001604052806000815250610c71565b80610c5084611706565b604051602001610c61929190612487565b6040516020818303038152906040525b915050919050565b6000600560008473ffffffffffffffffffffffffffffffffffffffff1673ffffffffffffffffffffffffffffffffffffffff16815260200190815260200160002060008373ffffffffffffffffffffffffffffffffffffffff1673ffffffffffffffffffffffffffffffffffffffff16815260200190815260200160002060009054906101000a900460ff16905092915050565b600073ffffffffffffffffffffffffffffffffffffffff168173ffffffffffffffffffffffffffffffffffffffff161415610d7d576040517f08c379a0000000000000000000000000000000000000000000000000000000008152600401610d74906125a4565b60405180910390fd5b8073ffffffffffffffffffffffffffffffffffffffff16600660009054906101000a900473ffffffffffffffffffffffffffffffffffffffff1673ffffffffffffffffffffffffffffffffffffffff167f8be0079c531659141344cd1fd0a4f28419497f9722a3daafe3b4186f6b6457e060405160405180910390a380600660006101000a81548173ffffffffffffffffffffffffffffffffffffffff021916908373ffffffffffffffffffffffffffffffffffffffff16021790555050565b60007f01ffc9a7000000000000000000000000000000000000000000000000000000007bffffffffffffffffffffffffffffffffffffffffffffffffffffffff1916827bffffffffffffffffffffffffffffffffffffffffffffffffffffffff1916149050919050565b60008073ffffffffffffffffffffffffffffffffffffffff166002600084815260200190815260200160002060009054906101000a900473ffffffffffffffffffffffffffffffffffffffff1673ffffffffffffffffffffffffffffffffffffffff1614159050919050565b600033905090565b816004600083815260200190815260200160002060006101000a81548173ffffffffffffffffffffffffffffffffffffffff021916908373ffffffffffffffffffffffffffffffffffffffff160217905550808273ffffffffffffffffffffffffffffffffffffffff16610f8e836107ae565b73ffffffffffffffffffffffffffffffffffffffff167f8c5be1e5ebec7d5bd14f71427d1e84f3dd0314c0f7b2291e5b200ac8c7c3b92560405160405180910390a45050565b6000610fdf82610ea7565b61101e576040517f08c379a000000000000000000000000000000000000000000000000000000000815260040161101590612644565b60405180910390fd5b6000611029836107ae565b90508073ffffffffffffffffffffffffffffffffffffffff168473ffffffffffffffffffffffffffffffffffffffff16148061109857508373ffffffffffffffffffffffffffffffffffffffff1661108084610591565b73ffffffffffffffffffffffffffffffffffffffff16145b806110a957506110a88185610c79565b5b91505092915050565b8273ffffffffffffffffffffffffffffffffffffffff166110d2826107ae565b73ffffffffffffffffffffffffffffffffffffffff1614611128576040517f08c379a000000000000000000000000000000000000000000000000000000000815260040161111f90612704565b60405180910390fd5b600073ffffffffffffffffffffffffffffffffffffffff168273ffffffffffffffffffffffffffffffffffffffff161415611198576040517f08c379a000000000000000000000000000000000000000000000000000000000815260040161118f90612604565b60405180910390fd5b6111a38383836118b3565b6111ae600082610f1b565b6001600360008573ffffffffffffffffffffffffffffffffffffffff1673ffffffffffffffffffffffffffffffffffffffff16815260200190815260200160002060008282546111fe91906128f5565b925050819055506001600360008473ffffffffffffffffffffffffffffffffffffffff1673ffffffffffffffffffffffffffffffffffffffff1681526020019081526020016000206000828254611255919061286e565b92505081905550816002600083815260200190815260200160002060006101000a81548173ffffffffffffffffffffffffffffffffffffffff021916908373ffffffffffffffffffffffffffffffffffffffff160217905550808273ffffffffffffffffffffffffffffffffffffffff168473ffffffffffffffffffffffffffffffffffffffff167fddf252ad1be2c89b69c2b068fc378daa952ba7f163c4a11628f55a4df523b3ef60405160405180910390a4505050565b8173ffffffffffffffffffffffffffffffffffffffff168373ffffffffffffffffffffffffffffffffffffffff16141561137d576040517f08c379a000000000000000000000000000000000000000000000000000000000815260040161137490612624565b60405180910390fd5b80600560008573ffffffffffffffffffffffffffffffffffffffff1673ffffffffffffffffffffffffffffffffffffffff16815260200190815260200160002060008473ffffffffffffffffffffffffffffffffffffffff1673ffffffffffffffffffffffffffffffffffffffff16815260200190815260200160002060006101000a81548160ff0219169083151502179055508173ffffffffffffffffffffffffffffffffffffffff168373ffffffffffffffffffffffffffffffffffffffff167f17307eab39ab6107e8899845ad3d59bd9653f200f220920489ca2b5937696c318360405161146e9190612527565b60405180910390a3505050565b600081600001549050919050565b6001816000016000828254019250508190555050565b600073ffffffffffffffffffffffffffffffffffffffff168273ffffffffffffffffffffffffffffffffffffffff16141561150f576040517f08c379a0000000000000000000000000000000000000000000000000000000008152600401611506906126c4565b60405180910390fd5b61151881610ea7565b15611558576040517f08c379a000000000000000000000000000000000000000000000000000000000815260040161154f906125e4565b60405180910390fd5b611564600083836118b3565b6001600360008473ffffffffffffffffffffffffffffffffffffffff1673ffffffffffffffffffffffffffffffffffffffff16815260200190815260200160002060008282546115b4919061286e565b92505081905550816002600083815260200190815260200160002060006101000a81548173ffffffffffffffffffffffffffffffffffffffff021916908373ffffffffffffffffffffffffffffffffffffffff160217905550808273ffffffffffffffffffffffffffffffffffffffff16600073ffffffffffffffffffffffffffffffffffffffff167fddf252ad1be2c89b69c2b068fc378daa952ba7f163c4a11628f55a4df523b3ef60405160405180910390a45050565b6116788484846110b2565b611684848484846118b8565b6116c3576040517f08c379a00000000000000000000000000000000000000000000000000000000081526004016116ba90612584565b60405180910390fd5b50505050565b60606040518060400160405280600e81526020017f6365782e636f6d2f696d6167652f000000000000000000000000000000000000815250905090565b6060600082141561174e576040518060400160405280600181526020017f300000000000000000000000000000000000000000000000000000000000000081525090506118ae565b600082905060005b6000821461178057808061176990612a11565b915050600a8261177991906128c4565b9150611756565b60008167ffffffffffffffff8111156117c2577f4e487b7100000000000000000000000000000000000000000000000000000000600052604160045260246000fd5b6040519080825280601f01601f1916602001820160405280156117f45781602001600182028036833780820191505090505b5090505b600085146118a75760018261180d91906128f5565b9150600a8561181c9190612a5a565b6030611828919061286e565b60f81b818381518110611864577f4e487b7100000000000000000000000000000000000000000000000000000000600052603260045260246000fd5b60200101907effffffffffffffffffffffffffffffffffffffffffffffffffffffffffffff1916908160001a905350600a856118a091906128c4565b94506117f8565b8093505050505b919050565b505050565b60006118d98473ffffffffffffffffffffffffffffffffffffffff16611a4f565b15611a42578373ffffffffffffffffffffffffffffffffffffffff1663150b7a02611902610f13565b8786866040518563ffffffff1660e01b815260040161192494939291906124db565b602060405180830381600087803b15801561193e57600080fd5b505af192505050801561196f57506040513d601f19601f8201168201806040525081019061196c9190611d03565b60015b6119f2573d806000811461199f576040519150601f19603f3d011682016040523d82523d6000602084013e6119a4565b606091505b506000815114156119ea576040517f08c379a00000000000000000000000000000000000000000000000000000000081526004016119e190612584565b60405180910390fd5b805181602001fd5b63150b7a0260e01b7bffffffffffffffffffffffffffffffffffffffffffffffffffffffff1916817bffffffffffffffffffffffffffffffffffffffffffffffffffffffff191614915050611a47565b600190505b949350505050565b600080823b905060008111915050919050565b6000611a75611a70846127f0565b6127bf565b905082815260208101848484011115611a8d57600080fd5b611a9884828561299d565b509392505050565b600081359050611aaf81612b58565b92915050565b600081359050611ac481612b6f565b92915050565b600081359050611ad981612b86565b92915050565b600081519050611aee81612b86565b92915050565b600082601f830112611b0557600080fd5b8135611b15848260208601611a62565b91505092915050565b600081359050611b2d81612b9d565b92915050565b600060208284031215611b4557600080fd5b6000611b5384828501611aa0565b91505092915050565b60008060408385031215611b6f57600080fd5b6000611b7d85828601611aa0565b9250506020611b8e85828601611aa0565b9150509250929050565b600080600060608486031215611bad57600080fd5b6000611bbb86828701611aa0565b9350506020611bcc86828701611aa0565b9250506040611bdd86828701611b1e565b9150509250925092565b60008060008060808587031215611bfd57600080fd5b6000611c0b87828801611aa0565b9450506020611c1c87828801611aa0565b9350506040611c2d87828801611b1e565b925050606085013567ffffffffffffffff811115611c4a57600080fd5b611c5687828801611af4565b91505092959194509250565b60008060408385031215611c7557600080fd5b6000611c8385828601611aa0565b9250506020611c9485828601611ab5565b9150509250929050565b60008060408385031215611cb157600080fd5b6000611cbf85828601611aa0565b9250506020611cd085828601611b1e565b9150509250929050565b600060208284031215611cec57600080fd5b6000611cfa84828501611aca565b91505092915050565b600060208284031215611d1557600080fd5b6000611d2384828501611adf565b91505092915050565b600060208284031215611d3e57600080fd5b6000611d4c84828501611b1e565b91505092915050565b611d5e81612929565b82525050565b611d6d8161293b565b82525050565b6000611d7e82612820565b611d888185612836565b9350611d988185602086016129ac565b611da181612b47565b840191505092915050565b6000611db78261282b565b611dc18185612852565b9350611dd18185602086016129ac565b611dda81612b47565b840191505092915050565b6000611df08261282b565b611dfa8185612863565b9350611e0a8185602086016129ac565b80840191505092915050565b6000611e23601c83612852565b91507f496e636f727265637420616d6f756e74206f66204554482073656e74000000006000830152602082019050919050565b6000611e63603283612852565b91507f4552433732313a207472616e7366657220746f206e6f6e20455243373231526560008301527f63656976657220696d706c656d656e74657200000000000000000000000000006020830152604082019050919050565b6000611ec9602683612852565b91507f4f776e61626c653a206e6577206f776e657220697320746865207a65726f206160008301527f64647265737300000000000000000000000000000000000000000000000000006020830152604082019050919050565b6000611f2f600f83612852565b91507f5472616e73666572206661696c656400000000000000000000000000000000006000830152602082019050919050565b6000611f6f601c83612852565b91507f4552433732313a20746f6b656e20616c7265616479206d696e746564000000006000830152602082019050919050565b6000611faf602483612852565b91507f4552433732313a207472616e7366657220746f20746865207a65726f2061646460008301527f72657373000000000000000000000000000000000000000000000000000000006020830152604082019050919050565b6000612015601983612852565b91507f4552433732313a20617070726f766520746f2063616c6c6572000000000000006000830152602082019050919050565b6000612055602c83612852565b91507f4552433732313a206f70657261746f7220717565727920666f72206e6f6e657860008301527f697374656e7420746f6b656e00000000000000000000000000000000000000006020830152604082019050919050565b60006120bb603883612852565b91507f4552433732313a20617070726f76652063616c6c6572206973206e6f74206f7760008301527f6e6572206e6f7220617070726f76656420666f7220616c6c00000000000000006020830152604082019050919050565b6000612121602a83612852565b91507f4552433732313a2062616c616e636520717565727920666f7220746865207a6560008301527f726f2061646472657373000000000000000000000000000000000000000000006020830152604082019050919050565b6000612187602983612852565b91507f4552433732313a206f776e657220717565727920666f72206e6f6e657869737460008301527f656e7420746f6b656e00000000000000000000000000000000000000000000006020830152604082019050919050565b60006121ed602083612852565b91507f4552433732313a206d696e7420746f20746865207a65726f20616464726573736000830152602082019050919050565b600061222d602c83612852565b91507f4552433732313a20617070726f76656420717565727920666f72206e6f6e657860008301527f697374656e7420746f6b656e00000000000000000000000000000000000000006020830152604082019050919050565b6000612293602983612852565b91507f4552433732313a207472616e73666572206f6620746f6b656e2074686174206960008301527f73206e6f74206f776e00000000000000000000000000000000000000000000006020830152604082019050919050565b60006122f9602f83612852565b91507f4552433732314d657461646174613a2055524920717565727920666f72206e6f60008301527f6e6578697374656e7420746f6b656e00000000000000000000000000000000006020830152604082019050919050565b600061235f602183612852565b91507f4552433732313a20617070726f76616c20746f2063757272656e74206f776e6560008301527f72000000000000000000000000000000000000000000000000000000000000006020830152604082019050919050565b60006123c5600083612847565b9150600082019050919050565b60006123df603183612852565b91507f4552433732313a207472616e736665722063616c6c6572206973206e6f74206f60008301527f776e6572206e6f7220617070726f7665640000000000000000000000000000006020830152604082019050919050565b6000612445600883612852565b91507f536f6c64206f75740000000000000000000000000000000000000000000000006000830152602082019050919050565b61248181612993565b82525050565b60006124938285611de5565b915061249f8284611de5565b91508190509392505050565b60006124b6826123b8565b9150819050919050565b60006020820190506124d56000830184611d55565b92915050565b60006080820190506124f06000830187611d55565b6124fd6020830186611d55565b61250a6040830185612478565b818103606083015261251c8184611d73565b905095945050505050565b600060208201905061253c6000830184611d64565b92915050565b6000602082019050818103600083015261255c8184611dac565b905092915050565b6000602082019050818103600083015261257d81611e16565b9050919050565b6000602082019050818103600083015261259d81611e56565b9050919050565b600060208201905081810360008301526125bd81611ebc565b9050919050565b600060208201905081810360008301526125dd81611f22565b9050919050565b600060208201905081810360008301526125fd81611f62565b9050919050565b6000602082019050818103600083015261261d81611fa2565b9050919050565b6000602082019050818103600083015261263d81612008565b9050919050565b6000602082019050818103600083015261265d81612048565b9050919050565b6000602082019050818103600083015261267d816120ae565b9050919050565b6000602082019050818103600083015261269d81612114565b9050919050565b600060208201905081810360008301526126bd8161217a565b9050919050565b600060208201905081810360008301526126dd816121e0565b9050919050565b600060208201905081810360008301526126fd81612220565b9050919050565b6000602082019050818103600083015261271d81612286565b9050919050565b6000602082019050818103600083015261273d816122ec565b9050919050565b6000602082019050818103600083015261275d81612352565b9050919050565b6000602082019050818103600083015261277d816123d2565b9050919050565b6000602082019050818103600083015261279d81612438565b9050919050565b60006020820190506127b96000830184612478565b92915050565b6000604051905081810181811067ffffffffffffffff821117156127e6576127e5612b18565b5b8060405250919050565b600067ffffffffffffffff82111561280b5761280a612b18565b5b601f19601f8301169050602081019050919050565b600081519050919050565b600081519050919050565b600082825260208201905092915050565b600081905092915050565b600082825260208201905092915050565b600081905092915050565b600061287982612993565b915061288483612993565b9250827fffffffffffffffffffffffffffffffffffffffffffffffffffffffffffffffff038211156128b9576128b8612a8b565b5b828201905092915050565b60006128cf82612993565b91506128da83612993565b9250826128ea576128e9612aba565b5b828204905092915050565b600061290082612993565b915061290b83612993565b92508282101561291e5761291d612a8b565b5b828203905092915050565b600061293482612973565b9050919050565b60008115159050919050565b60007fffffffff0000000000000000000000000000000000000000000000000000000082169050919050565b600073ffffffffffffffffffffffffffffffffffffffff82169050919050565b6000819050919050565b82818337600083830152505050565b60005b838110156129ca5780820151818401526020810190506129af565b838111156129d9576000848401525b50505050565b600060028204905060018216806129f757607f821691505b60208210811415612a0b57612a0a612ae9565b5b50919050565b6000612a1c82612993565b91507fffffffffffffffffffffffffffffffffffffffffffffffffffffffffffffffff821415612a4f57612a4e612a8b565b5b600182019050919050565b6000612a6582612993565b9150612a7083612993565b925082612a8057612a7f612aba565b5b828206905092915050565b7f4e487b7100000000000000000000000000000000000000000000000000000000600052601160045260246000fd5b7f4e487b7100000000000000000000000000000000000000000000000000000000600052601260045260246000fd5b7f4e487b7100000000000000000000000000000000000000000000000000000000600052602260045260246000fd5b7f4e487b7100000000000000000000000000000000000000000000000000000000600052604160045260246000fd5b6000601f19601f8301169050919050565b612b6181612929565b8114612b6c57600080fd5b50565b612b788161293b565b8114612b8357600080fd5b50565b612b8f81612947565b8114612b9a57600080fd5b50565b612ba681612993565b8114612bb157600080fd5b5056fea26469706673582212204b5698dfd8fd746c7212a28be01ca971fb1d8615f7a536bb44c2b9bffcea992864736f6c63430008000033",
  "immutableReferences": {},
  "source": "// SPDX-License-Identifier: UNLICENSED\npragma solidity ^0.8.0;\n\nimport \"./ERC721.sol\";\nimport \"./Ownable.sol\";\nimport \"./Counters.sol\";\n\ncontract LuuLawson is ERC721, Ownable {\n    using Counters for Counters.Counter;\n    Counters.Counter ID; // initially 0\n\n    uint256 public price;\n    string[] private metadata;\n    constructor(string[] memory links, uint256 _price) ERC721(\"Luu + Lawson\", \"LUULAW\"){\n        price = _price;\n        metadata = links;\n    }\n\n\n    function buy() public payable {\n        require(Counters.current(ID) < metadata.length - 1, \"Sold out\");\n        require(msg.value == price, \"Incorrect amount of ETH sent\");\n        \n        \n        // Pay contract owner\n        (bool success,) = owner().call{value: msg.value}(\"\");\n        require(success, \"Transfer failed\");\n        uint256 currID = Counters.current(ID);\n        \n        // Increment ID counter\n        Counters.increment(ID);\n        \n        // Mint NFT to user wallet\n        _mint(_msgSender(), currID);\n    }\n\n}",
  "sourcePath": "/Users/adrianlawson/Documents/savethedate/contracts/NFT.sol",
  "compiler": {
    "name": "solc",
    "version": "0.8.0+commit.c7dfd78e.Emscripten.clang"
  },
  "schemaVersion": "3.2.5",
  "updatedAt": "2021-11-24T02:44:24.722Z",
  "devdoc": {
    "kind": "dev",
    "methods": {
      "approve(address,uint256)": {
        "details": "See {IERC721-approve}."
      },
      "balanceOf(address)": {
        "details": "See {IERC721-balanceOf}."
      },
      "getApproved(uint256)": {
        "details": "See {IERC721-getApproved}."
      },
      "isApprovedForAll(address,address)": {
        "details": "See {IERC721-isApprovedForAll}."
      },
      "name()": {
        "details": "See {IERC721Metadata-name}."
      },
      "owner()": {
        "details": "Returns the address of the current owner."
      },
      "ownerOf(uint256)": {
        "details": "See {IERC721-ownerOf}."
      },
      "safeTransferFrom(address,address,uint256)": {
        "details": "See {IERC721-safeTransferFrom}."
      },
      "safeTransferFrom(address,address,uint256,bytes)": {
        "details": "See {IERC721-safeTransferFrom}."
      },
      "setApprovalForAll(address,bool)": {
        "details": "See {IERC721-setApprovalForAll}."
      },
      "supportsInterface(bytes4)": {
        "details": "See {IERC165-supportsInterface}."
      },
      "symbol()": {
        "details": "See {IERC721Metadata-symbol}."
      },
      "tokenURI(uint256)": {
        "details": "See {IERC721Metadata-tokenURI}."
      },
      "transferFrom(address,address,uint256)": {
        "details": "See {IERC721-transferFrom}."
      },
      "transferOwnership(address)": {
        "details": "Transfers ownership of the contract to a new account (`newOwner`). Can only be called by the current owner."
      }
    },
    "version": 1
  },
  "userdoc": {
    "kind": "user",
    "methods": {},
    "version": 1
  }
}